{
  "contractName": "Election",
  "abi": [
    {
      "constant": true,
      "inputs": [
        {
          "name": "",
          "type": "bytes32"
        }
      ],
      "name": "hasVoted",
      "outputs": [
        {
          "name": "",
          "type": "bool"
        }
      ],
      "payable": false,
      "stateMutability": "view",
      "type": "function"
    },
    {
      "constant": true,
      "inputs": [],
      "name": "endTime",
      "outputs": [
        {
          "name": "",
          "type": "uint256"
        }
      ],
      "payable": false,
      "stateMutability": "view",
      "type": "function"
    },
    {
      "constant": true,
      "inputs": [],
      "name": "voterCount",
      "outputs": [
        {
          "name": "",
          "type": "uint256"
        }
      ],
      "payable": false,
      "stateMutability": "view",
      "type": "function"
    },
    {
      "constant": true,
      "inputs": [],
      "name": "vaultSealed",
      "outputs": [
        {
          "name": "",
          "type": "bool"
        }
      ],
      "payable": false,
      "stateMutability": "view",
      "type": "function"
    },
    {
      "constant": true,
      "inputs": [
        {
          "name": "",
          "type": "uint256"
        }
      ],
      "name": "parties",
      "outputs": [
        {
          "name": "",
          "type": "string"
        }
      ],
      "payable": false,
      "stateMutability": "view",
      "type": "function"
    },
    {
      "constant": true,
      "inputs": [],
      "name": "beginTime",
      "outputs": [
        {
          "name": "",
          "type": "uint256"
        }
      ],
      "payable": false,
      "stateMutability": "view",
      "type": "function"
    },
    {
      "constant": true,
      "inputs": [
        {
          "name": "",
          "type": "uint256"
        }
      ],
      "name": "constituencies",
      "outputs": [
        {
          "name": "",
          "type": "string"
        }
      ],
      "payable": false,
      "stateMutability": "view",
      "type": "function"
    },
    {
      "constant": true,
      "inputs": [
        {
          "name": "",
          "type": "address"
        }
      ],
      "name": "ec_officials",
      "outputs": [
        {
          "name": "",
          "type": "bool"
        }
      ],
      "payable": false,
      "stateMutability": "view",
      "type": "function"
    },
    {
      "constant": true,
      "inputs": [
        {
          "name": "",
          "type": "address"
        }
      ],
      "name": "kyc_verifiers",
      "outputs": [
        {
          "name": "",
          "type": "bool"
        }
      ],
      "payable": false,
      "stateMutability": "view",
      "type": "function"
    },
    {
      "constant": true,
      "inputs": [],
      "name": "EC_Head",
      "outputs": [
        {
          "name": "",
          "type": "address"
        }
      ],
      "payable": false,
      "stateMutability": "view",
      "type": "function"
    },
    {
      "constant": true,
      "inputs": [
        {
          "name": "",
          "type": "bytes32"
        }
      ],
      "name": "kycDone",
      "outputs": [
        {
          "name": "",
          "type": "bool"
        }
      ],
      "payable": false,
      "stateMutability": "view",
      "type": "function"
    },
    {
      "constant": true,
      "inputs": [],
      "name": "isVaultOpened",
      "outputs": [
        {
          "name": "",
          "type": "bool"
        }
      ],
      "payable": false,
      "stateMutability": "view",
      "type": "function"
    },
    {
      "inputs": [],
      "payable": false,
      "stateMutability": "nonpayable",
      "type": "constructor"
    },
    {
      "constant": false,
      "inputs": [
        {
          "name": "official",
          "type": "address"
        }
      ],
      "name": "addEcOfficial",
      "outputs": [],
      "payable": false,
      "stateMutability": "nonpayable",
      "type": "function"
    },
    {
      "constant": false,
      "inputs": [
        {
          "name": "official",
          "type": "address"
        }
      ],
      "name": "removeEcOfficial",
      "outputs": [],
      "payable": false,
      "stateMutability": "nonpayable",
      "type": "function"
    },
    {
      "constant": false,
      "inputs": [
        {
          "name": "verifier",
          "type": "address"
        }
      ],
      "name": "addKycVerifier",
      "outputs": [],
      "payable": false,
      "stateMutability": "nonpayable",
      "type": "function"
    },
    {
      "constant": false,
      "inputs": [
        {
          "name": "verifier",
          "type": "address"
        }
      ],
      "name": "removeKycVerifier",
      "outputs": [],
      "payable": false,
      "stateMutability": "nonpayable",
      "type": "function"
    },
    {
      "constant": false,
      "inputs": [
        {
          "name": "party_name",
          "type": "string"
        }
      ],
      "name": "addParty",
      "outputs": [],
      "payable": false,
      "stateMutability": "nonpayable",
      "type": "function"
    },
    {
      "constant": false,
      "inputs": [
        {
          "name": "constituency",
          "type": "string"
        }
      ],
      "name": "addConstituency",
      "outputs": [],
      "payable": false,
      "stateMutability": "nonpayable",
      "type": "function"
    },
    {
      "constant": false,
      "inputs": [
        {
          "name": "uuid_hash",
          "type": "bytes32"
        }
      ],
      "name": "kycVerify",
      "outputs": [],
      "payable": false,
      "stateMutability": "nonpayable",
      "type": "function"
    },
    {
      "constant": false,
      "inputs": [
        {
          "name": "uuid_hash",
          "type": "bytes32"
        },
        {
          "name": "constituency",
          "type": "string"
        },
        {
          "name": "party",
          "type": "string"
        },
        {
          "name": "vote_hash",
          "type": "bytes32"
        }
      ],
      "name": "registerVote",
      "outputs": [],
      "payable": false,
      "stateMutability": "nonpayable",
      "type": "function"
    },
    {
      "constant": false,
      "inputs": [],
      "name": "calculateVotes",
      "outputs": [
        {
          "name": "",
          "type": "bool"
        }
      ],
      "payable": false,
      "stateMutability": "nonpayable",
      "type": "function"
    },
    {
      "constant": true,
      "inputs": [
        {
          "name": "constituency",
          "type": "string"
        }
      ],
      "name": "getWinner",
      "outputs": [
        {
          "name": "",
          "type": "string"
        }
      ],
      "payable": false,
      "stateMutability": "view",
      "type": "function"
    },
    {
      "constant": true,
      "inputs": [
        {
          "name": "constituency",
          "type": "string"
        },
        {
          "name": "party",
          "type": "string"
        }
      ],
      "name": "getVoteHashes",
      "outputs": [
        {
          "name": "",
          "type": "bytes32[]"
        }
      ],
      "payable": false,
      "stateMutability": "view",
      "type": "function"
    },
    {
      "constant": true,
      "inputs": [
        {
          "name": "constituency",
          "type": "string"
        },
        {
          "name": "party",
          "type": "string"
        }
      ],
      "name": "getVoteCount",
      "outputs": [
        {
          "name": "",
          "type": "uint256"
        }
      ],
      "payable": false,
      "stateMutability": "view",
      "type": "function"
    }
  ],
  "bytecode": "0x608060405234801561001057600080fd5b50336000806101000a81548173ffffffffffffffffffffffffffffffffffffffff021916908373ffffffffffffffffffffffffffffffffffffffff1602179055506001600260003373ffffffffffffffffffffffffffffffffffffffff1673ffffffffffffffffffffffffffffffffffffffff16815260200190815260200160002060006101000a81548160ff02191690831515021790555060018060003373ffffffffffffffffffffffffffffffffffffffff1673ffffffffffffffffffffffffffffffffffffffff16815260200190815260200160002060006101000a81548160ff02191690831515021790555060006007819055506000600d60006101000a81548160ff0219169083151502179055506000600d60016101000a81548160ff021916908315150217905550611e078061014d6000396000f3fe608060405234801561001057600080fd5b50600436106101585760003560e01c806388149fb9116100c3578063e8b2f84b1161007c578063e8b2f84b146103fd578063e9c8767b14610419578063ecf07ceb14610437578063f2ba18ed14610467578063fb67e47514610485578063fc13c2a9146104a357610158565b806388149fb9146103035780639209416a14610321578063ab38b21914610351578063c8695cb11461036d578063df56ce561461039d578063e7e0fff8146103cd57610158565b806342169e481161011557806342169e481461022f57806350f10b1f1461024d5780635b80df90146102695780635df3e2711461029957806366264905146102b557806370651a18146102d357610158565b806305a395a51461015d5780631694fa7d14610179578063183f507a146101a95780631b4613cb146101c55780631e8e8d9e146101f55780633197cbb614610211575b600080fd5b610177600480360361017291908101906116e0565b6104bf565b005b610193600480360361018e9190810190611721565b61058d565b6040516101a09190611bf5565b60405180910390f35b6101c360048036036101be9190810190611624565b6105d2565b005b6101df60048036036101da9190810190611624565b61068d565b6040516101ec9190611b36565b60405180910390f35b61020f600480360361020a91908101906115fb565b6106ad565b005b6102196107e3565b6040516102269190611bf5565b60405180910390f35b6102376107e9565b6040516102449190611bf5565b60405180910390f35b6102676004803603610262919081019061164d565b6107ef565b005b610283600480360361027e91908101906116e0565b610958565b6040516102909190611b73565b60405180910390f35b6102b360048036036102ae91908101906116e0565b610a18565b005b6102bd610ae6565b6040516102ca9190611b36565b60405180910390f35b6102ed60048036036102e8919081019061178d565b610af9565b6040516102fa9190611b51565b60405180910390f35b61030b610bb2565b6040516103189190611bf5565b60405180910390f35b61033b6004803603610336919081019061178d565b610bb8565b6040516103489190611b51565b60405180910390f35b61036b600480360361036691908101906115fb565b610c71565b005b610387600480360361038291908101906115fb565b610daa565b6040516103949190611b36565b60405180910390f35b6103b760048036036103b29190810190611721565b610dca565b6040516103c49190611b14565b60405180910390f35b6103e760048036036103e291908101906115fb565b610e5d565b6040516103f49190611b36565b60405180910390f35b610417600480360361041291908101906115fb565b610e7d565b005b610421610f67565b60405161042e9190611af9565b60405180910390f35b610451600480360361044c9190810190611624565b610f8c565b60405161045e9190611b36565b60405180910390f35b61046f610fac565b60405161047c9190611b36565b60405180910390f35b61048d6113ca565b60405161049a9190611b36565b60405180910390f35b6104bd60048036036104b891908101906115fb565b6113dd565b005b600260003373ffffffffffffffffffffffffffffffffffffffff1673ffffffffffffffffffffffffffffffffffffffff16815260200190815260200160002060009054906101000a900460ff1661054b576040517f08c379a000000000000000000000000000000000000000000000000000000000815260040161054290611bb5565b60405180910390fd5b60038190806001815401808255809150509060018203906000526020600020016000909192909190915090805190602001906105889291906114c3565b505050565b600060098360405161059f9190611acb565b9081526020016040518091039020826040516105bb9190611acb565b908152602001604051809103902054905092915050565b600160003373ffffffffffffffffffffffffffffffffffffffff1673ffffffffffffffffffffffffffffffffffffffff16815260200190815260200160002060009054906101000a900460ff1661065e576040517f08c379a000000000000000000000000000000000000000000000000000000000815260040161065590611bb5565b60405180910390fd5b60016006600083815260200190815260200160002060006101000a81548160ff02191690831515021790555050565b60056020528060005260406000206000915054906101000a900460ff1681565b600260003373ffffffffffffffffffffffffffffffffffffffff1673ffffffffffffffffffffffffffffffffffffffff16815260200190815260200160002060009054906101000a900460ff16610739576040517f08c379a000000000000000000000000000000000000000000000000000000000815260040161073090611bb5565b60405180910390fd5b6000600160008373ffffffffffffffffffffffffffffffffffffffff1673ffffffffffffffffffffffffffffffffffffffff16815260200190815260200160002060006101000a81548160ff021916908315150217905550600160008273ffffffffffffffffffffffffffffffffffffffff1673ffffffffffffffffffffffffffffffffffffffff16815260200190815260200160002060006101000a81549060ff021916905550565b600c5481565b60075481565b6006600085815260200190815260200160002060009054906101000a900460ff1661084f576040517f08c379a000000000000000000000000000000000000000000000000000000000815260040161084690611bd5565b60405180910390fd5b6005600085815260200190815260200160002060009054906101000a900460ff16156108b0576040517f08c379a00000000000000000000000000000000000000000000000000000000081526004016108a790611b95565b60405180910390fd5b6008836040516108c09190611acb565b9081526020016040518091039020826040516108dc9190611acb565b908152602001604051809103902081908060018154018082558091505090600182039060005260206000200160009091929091909150555060076000815480929190600101919050555060016005600086815260200190815260200160002060006101000a81548160ff02191690831515021790555050505050565b6060600a8260405161096a9190611acb565b90815260200160405180910390208054600181600116156101000203166002900480601f016020809104026020016040519081016040528092919081815260200182805460018160011615610100020316600290048015610a0c5780601f106109e157610100808354040283529160200191610a0c565b820191906000526020600020905b8154815290600101906020018083116109ef57829003601f168201915b50505050509050919050565b600260003373ffffffffffffffffffffffffffffffffffffffff1673ffffffffffffffffffffffffffffffffffffffff16815260200190815260200160002060009054906101000a900460ff16610aa4576040517f08c379a0000000000000000000000000000000000000000000000000000000008152600401610a9b90611bb5565b60405180910390fd5b6004819080600181540180825580915050906001820390600052602060002001600090919290919091509080519060200190610ae19291906114c3565b505050565b600d60009054906101000a900460ff1681565b60048181548110610b0657fe5b906000526020600020016000915090508054600181600116156101000203166002900480601f016020809104026020016040519081016040528092919081815260200182805460018160011615610100020316600290048015610baa5780601f10610b7f57610100808354040283529160200191610baa565b820191906000526020600020905b815481529060010190602001808311610b8d57829003601f168201915b505050505081565b600b5481565b60038181548110610bc557fe5b906000526020600020016000915090508054600181600116156101000203166002900480601f016020809104026020016040519081016040528092919081815260200182805460018160011615610100020316600290048015610c695780601f10610c3e57610100808354040283529160200191610c69565b820191906000526020600020905b815481529060010190602001808311610c4c57829003601f168201915b505050505081565b6000809054906101000a900473ffffffffffffffffffffffffffffffffffffffff1673ffffffffffffffffffffffffffffffffffffffff163373ffffffffffffffffffffffffffffffffffffffff1614610d00576040517f08c379a0000000000000000000000000000000000000000000000000000000008152600401610cf790611bb5565b60405180910390fd5b6000600260008373ffffffffffffffffffffffffffffffffffffffff1673ffffffffffffffffffffffffffffffffffffffff16815260200190815260200160002060006101000a81548160ff021916908315150217905550600260008273ffffffffffffffffffffffffffffffffffffffff1673ffffffffffffffffffffffffffffffffffffffff16815260200190815260200160002060006101000a81549060ff021916905550565b60026020528060005260406000206000915054906101000a900460ff1681565b6060600883604051610ddc9190611acb565b908152602001604051809103902082604051610df89190611acb565b9081526020016040518091039020805480602002602001604051908101604052809291908181526020018280548015610e5057602002820191906000526020600020905b815481526020019060010190808311610e3c575b5050505050905092915050565b60016020528060005260406000206000915054906101000a900460ff1681565b6000809054906101000a900473ffffffffffffffffffffffffffffffffffffffff1673ffffffffffffffffffffffffffffffffffffffff163373ffffffffffffffffffffffffffffffffffffffff1614610f0c576040517f08c379a0000000000000000000000000000000000000000000000000000000008152600401610f0390611bb5565b60405180910390fd5b6001600260008373ffffffffffffffffffffffffffffffffffffffff1673ffffffffffffffffffffffffffffffffffffffff16815260200190815260200160002060006101000a81548160ff02191690831515021790555050565b6000809054906101000a900473ffffffffffffffffffffffffffffffffffffffff1681565b60066020528060005260406000206000915054906101000a900460ff1681565b60008060009054906101000a900473ffffffffffffffffffffffffffffffffffffffff1673ffffffffffffffffffffffffffffffffffffffff163373ffffffffffffffffffffffffffffffffffffffff161461103d576040517f08c379a000000000000000000000000000000000000000000000000000000000815260040161103490611bb5565b60405180910390fd5b606060008090505b6003805490508110156113c157600460008154811061106057fe5b906000526020600020018054600181600116156101000203166002900480601f0160208091040260200160405190810160405280929190818152602001828054600181600116156101000203166002900480156110fe5780601f106110d3576101008083540402835291602001916110fe565b820191906000526020600020905b8154815290600101906020018083116110e157829003601f168201915b5050505050915060008090505b60048054905081101561136a5760086003838154811061112757fe5b9060005260206000200160405161113e9190611ae2565b90815260200160405180910390206004828154811061115957fe5b906000526020600020016040516111709190611ae2565b90815260200160405180910390208054905060096003848154811061119157fe5b906000526020600020016040516111a89190611ae2565b9081526020016040518091039020600483815481106111c357fe5b906000526020600020016040516111da9190611ae2565b9081526020016040518091039020819055506009600383815481106111fb57fe5b906000526020600020016040516112129190611ae2565b90815260200160405180910390208360405161122e9190611acb565b90815260200160405180910390205460096003848154811061124c57fe5b906000526020600020016040516112639190611ae2565b90815260200160405180910390206004838154811061127e57fe5b906000526020600020016040516112959190611ae2565b908152602001604051809103902054111561135d57600481815481106112b757fe5b906000526020600020018054600181600116156101000203166002900480601f0160208091040260200160405190810160405280929190818152602001828054600181600116156101000203166002900480156113555780601f1061132a57610100808354040283529160200191611355565b820191906000526020600020905b81548152906001019060200180831161133857829003601f168201915b505050505092505b808060010191505061110b565b5081600a6003838154811061137b57fe5b906000526020600020016040516113929190611ae2565b908152602001604051809103902090805190602001906113b39291906114c3565b508080600101915050611045565b50600191505090565b600d60019054906101000a900460ff1681565b600260003373ffffffffffffffffffffffffffffffffffffffff1673ffffffffffffffffffffffffffffffffffffffff16815260200190815260200160002060009054906101000a900460ff16611469576040517f08c379a000000000000000000000000000000000000000000000000000000000815260040161146090611bb5565b60405180910390fd5b60018060008373ffffffffffffffffffffffffffffffffffffffff1673ffffffffffffffffffffffffffffffffffffffff16815260200190815260200160002060006101000a81548160ff02191690831515021790555050565b828054600181600116156101000203166002900490600052602060002090601f016020900481019282601f1061150457805160ff1916838001178555611532565b82800160010185558215611532579182015b82811115611531578251825591602001919060010190611516565b5b50905061153f9190611543565b5090565b61156591905b80821115611561576000816000905550600101611549565b5090565b90565b60008135905061157781611d88565b92915050565b60008135905061158c81611d9f565b92915050565b600082601f8301126115a357600080fd5b81356115b66115b182611c3d565b611c10565b915080825260208301602083018583830111156115d257600080fd5b6115dd838284611d35565b50505092915050565b6000813590506115f581611db6565b92915050565b60006020828403121561160d57600080fd5b600061161b84828501611568565b91505092915050565b60006020828403121561163657600080fd5b60006116448482850161157d565b91505092915050565b6000806000806080858703121561166357600080fd5b60006116718782880161157d565b945050602085013567ffffffffffffffff81111561168e57600080fd5b61169a87828801611592565b935050604085013567ffffffffffffffff8111156116b757600080fd5b6116c387828801611592565b92505060606116d48782880161157d565b91505092959194509250565b6000602082840312156116f257600080fd5b600082013567ffffffffffffffff81111561170c57600080fd5b61171884828501611592565b91505092915050565b6000806040838503121561173457600080fd5b600083013567ffffffffffffffff81111561174e57600080fd5b61175a85828601611592565b925050602083013567ffffffffffffffff81111561177757600080fd5b61178385828601611592565b9150509250929050565b60006020828403121561179f57600080fd5b60006117ad848285016115e6565b91505092915050565b60006117c2838361184a565b60208301905092915050565b6117d781611ce3565b82525050565b60006117e882611c88565b6117f28185611cb6565b93506117fd83611c69565b8060005b8381101561182e57815161181588826117b6565b975061182083611ca9565b925050600181019050611801565b5085935050505092915050565b61184481611cf5565b82525050565b61185381611d01565b82525050565b600061186482611c9e565b61186e8185611cc7565b935061187e818560208601611d44565b61188781611d77565b840191505092915050565b600061189d82611c9e565b6118a78185611cd8565b93506118b7818560208601611d44565b80840191505092915050565b60006118ce82611c93565b6118d88185611cc7565b93506118e8818560208601611d44565b6118f181611d77565b840191505092915050565b600081546001811660008114611919576001811461193e57611982565b607f600283041661192a8187611cd8565b955060ff1983168652808601935050611982565b6002820461194c8187611cd8565b955061195785611c76565b60005b828110156119795781548189015260018201915060208101905061195a565b82880195505050505b505092915050565b6000611997602683611cc7565b91507f54686520766f7465722068617320616c726561647920766f7465642e2041626f60008301527f7274696e672e00000000000000000000000000000000000000000000000000006020830152604082019050919050565b60006119fd603283611cc7565b91507f596f7520617265206e6f7420417574686f72697a656420746f206d616b65207460008301527f6869732066756e6374696f6e2043616c6c2e00000000000000000000000000006020830152604082019050919050565b6000611a63602a83611cc7565b91507f4b59432070726f63657373206973206e6f7420636f6d706c65746520666f722060008301527f7468697320766f746572000000000000000000000000000000000000000000006020830152604082019050919050565b611ac581611d2b565b82525050565b6000611ad78284611892565b915081905092915050565b6000611aee82846118fc565b915081905092915050565b6000602082019050611b0e60008301846117ce565b92915050565b60006020820190508181036000830152611b2e81846117dd565b905092915050565b6000602082019050611b4b600083018461183b565b92915050565b60006020820190508181036000830152611b6b81846118c3565b905092915050565b60006020820190508181036000830152611b8d8184611859565b905092915050565b60006020820190508181036000830152611bae8161198a565b9050919050565b60006020820190508181036000830152611bce816119f0565b9050919050565b60006020820190508181036000830152611bee81611a56565b9050919050565b6000602082019050611c0a6000830184611abc565b92915050565b6000604051905081810181811067ffffffffffffffff82111715611c3357600080fd5b8060405250919050565b600067ffffffffffffffff821115611c5457600080fd5b601f19601f8301169050602081019050919050565b6000602082019050919050565b60008160005260206000209050919050565b600081519050919050565b600081519050919050565b600081519050919050565b6000602082019050919050565b600082825260208201905092915050565b600082825260208201905092915050565b600081905092915050565b6000611cee82611d0b565b9050919050565b60008115159050919050565b6000819050919050565b600073ffffffffffffffffffffffffffffffffffffffff82169050919050565b6000819050919050565b82818337600083830152505050565b60005b83811015611d62578082015181840152602081019050611d47565b83811115611d71576000848401525b50505050565b6000601f19601f8301169050919050565b611d9181611ce3565b8114611d9c57600080fd5b50565b611da881611d01565b8114611db357600080fd5b50565b611dbf81611d2b565b8114611dca57600080fd5b5056fea265627a7a72305820d3f792b1062114485003171606a106c31064dbc0a53b8885d0af1560d1e063526c6578706572696d656e74616cf50037",
  "source": "pragma solidity ^0.5.0;\npragma experimental ABIEncoderV2;\n\n// import \"./VoteVault.sol\";\n\ncontract Election {\n \n    address public EC_Head;\n    mapping(address => bool) public kyc_verifiers;\n    mapping(address => bool) public ec_officials;\n\n    // event Approval(address indexed tokenOwner, address indexed spender, uint tokens);\n    // event Transfer(address indexed from, address indexed to, uint tokens);\n\n    string[] public  constituencies;\n    string[] public parties;\n    // mapping(uint8 => string) public partyName;\n    mapping(bytes32 => bool) public hasVoted;\n    mapping(bytes32 => bool) public kycDone;\n    // mapping(uint => bool) public kycDone;\n    uint public voterCount;\n    mapping(string => mapping (string => bytes32[]))  vote_hashes;\n    mapping(string => mapping (string => uint))  result;\n    mapping(string => string)  winner;\n\n    // Vault opens/opened at this time\n    uint256 public beginTime;\n    \n    // Vault closes/Closed at this times\n    uint256 public endTime;\n    \n    // flag to track whether vault closed permanently or not\n    bool public vaultSealed;\n    \n    // Checks whether the vault is opened or not\n    bool public isVaultOpened;\n\n\n    using SafeMath for uint;\n    \n    modifier onlyEcHead {\n        require((msg.sender == EC_Head), \"You are not Authorized to make this function Call.\");\n        _;\n    }\n    modifier onlyEcOfficial {\n        require((ec_officials[msg.sender]), \"You are not Authorized to make this function Call.\");\n        _;\n    }\n    modifier onlyKycVerifier {\n        require((kyc_verifiers[msg.sender]), \"You are not Authorized to make this function Call.\");\n        _;\n    }\n\n   constructor() public {  \n\t\n    EC_Head = msg.sender;\n    ec_officials[msg.sender] = true;\n    // will remove this when actual voting occurs\n    kyc_verifiers[msg.sender] = true;\n    voterCount = 0;\n\n    vaultSealed = false;\n    isVaultOpened = false;\n    }  \n\n    function addEcOfficial (address official) public onlyEcHead {\n        ec_officials[official] = true;\n    }\n    function removeEcOfficial(address official) public onlyEcHead {\n        ec_officials[official] = false;\n        delete ec_officials[official];\n    }\n    function addKycVerifier (address verifier) public onlyEcOfficial {\n        kyc_verifiers[verifier] = true;\n    }\n    function removeKycVerifier(address verifier) public onlyEcOfficial {\n        kyc_verifiers[verifier] = false;\n        delete kyc_verifiers[verifier];\n    }\n    function addParty (string memory party_name) public onlyEcOfficial {\n        // require(!isVaultOpened);\n        // require(beginTime >= uint256(now), \"Cannot add a party after the elections have started.\");\n        parties.push(party_name);\n    }\n    function addConstituency (string memory constituency) public onlyEcOfficial{\n        // require(!isVaultOpened);\n        // require(beginTime >= uint256(now), \"Cannot add a constituency after the elections have started.\");\n        constituencies.push(constituency);\n    }\n\n    function kycVerify(bytes32  uuid_hash) public onlyKycVerifier {\n        kycDone[uuid_hash] = true;\n    }\n\n    function registerVote(bytes32 uuid_hash, string memory constituency, string memory party,  bytes32 vote_hash) public {\n        // require(!vaultSealed);\n        // require(isVaultOpened);\n        // require(beginTime <= uint256(now), \"The elections haven't started yet\"); \n        // require(endTime >= uint256(now), \"The election period is over\");\n        require(kycDone[uuid_hash], \"KYC process is not complete for this voter\");\n        require(!(hasVoted[uuid_hash]), \"The voter has already voted. Aborting.\");\n\n        vote_hashes[constituency][party].push(vote_hash);\n        voterCount++;\n        hasVoted[uuid_hash] = true;\n    }\n\n    function calculateVotes() public  onlyEcHead returns (bool) {\n        // require(endTime <= uint256(now), \"The election period is not over. Can't calculate the votes before election ends.\");\n        string memory _winner;\n\n        for (uint i = 0; i < constituencies.length; i++)\n        {\n            _winner = parties[0];\n            for (uint j = 0; j < parties.length; j++){\n                 result[constituencies[i]][parties[j]] = vote_hashes[constituencies[i]][parties[j]].length;\n                if ( result[constituencies[i]][parties[j]] > result[constituencies[i]][_winner]){\n                    _winner = parties[j];\n                }\n            }\n             winner[constituencies[i]] = _winner;\n        }\n        return true;\n    }\n\n    function getWinner(string memory constituency) public view returns (string memory) {\n        return  winner[constituency];\n    }\n    function getVoteHashes(string memory constituency, string memory party) public view returns (bytes32[] memory) {\n        return  vote_hashes[constituency][party];\n    }\n    function getVoteCount(string memory constituency, string memory party) public view returns (uint) {\n        return  result[constituency][party];\n    }\n}\n\nlibrary SafeMath { \n    function sub(uint256 a, uint256 b) internal pure returns (uint256) {\n      assert(b <= a);\n      return a - b;\n    }\n    \n    function add(uint256 a, uint256 b) internal pure returns (uint256) {\n      uint256 c = a + b;\n      assert(c >= a);\n      return c;\n    }\n}\n",
  "sourcePath": "/home/tezansahu/Tezan/Github Repos/Excalibur-code-fun-do/blockchain/contracts/Election.sol",
  "compiler": {
    "name": "solc",
    "version": "0.5.8+commit.23d335f2.Emscripten.clang"
  },
  "schemaVersion": "3.0.11",
  "updatedAt": "2019-08-16T14:09:21.548Z",
  "devdoc": {
    "methods": {}
  },
  "userdoc": {
    "methods": {}
  }
}