{
  "contractName": "Election",
  "abi": [
    {
      "constant": true,
      "inputs": [
        {
          "name": "",
          "type": "bytes32"
        }
      ],
      "name": "hasVoted",
      "outputs": [
        {
          "name": "",
          "type": "bool"
        }
      ],
      "payable": false,
      "stateMutability": "view",
      "type": "function"
    },
    {
      "constant": true,
      "inputs": [],
      "name": "endTime",
      "outputs": [
        {
          "name": "",
          "type": "uint256"
        }
      ],
      "payable": false,
      "stateMutability": "view",
      "type": "function"
    },
    {
      "constant": true,
      "inputs": [],
      "name": "voterCount",
      "outputs": [
        {
          "name": "",
          "type": "uint256"
        }
      ],
      "payable": false,
      "stateMutability": "view",
      "type": "function"
    },
    {
      "constant": true,
      "inputs": [
        {
          "name": "",
          "type": "uint256"
        }
      ],
      "name": "parties",
      "outputs": [
        {
          "name": "",
          "type": "string"
        }
      ],
      "payable": false,
      "stateMutability": "view",
      "type": "function"
    },
    {
      "constant": true,
      "inputs": [],
      "name": "beginTime",
      "outputs": [
        {
          "name": "",
          "type": "uint256"
        }
      ],
      "payable": false,
      "stateMutability": "view",
      "type": "function"
    },
    {
      "constant": true,
      "inputs": [
        {
          "name": "",
          "type": "uint256"
        }
      ],
      "name": "constituencies",
      "outputs": [
        {
          "name": "",
          "type": "string"
        }
      ],
      "payable": false,
      "stateMutability": "view",
      "type": "function"
    },
    {
      "constant": true,
      "inputs": [
        {
          "name": "",
          "type": "string"
        },
        {
          "name": "",
          "type": "string"
        }
      ],
      "name": "result",
      "outputs": [
        {
          "name": "",
          "type": "uint256"
        }
      ],
      "payable": false,
      "stateMutability": "view",
      "type": "function"
    },
    {
      "constant": true,
      "inputs": [
        {
          "name": "",
          "type": "address"
        }
      ],
      "name": "ec_officials",
      "outputs": [
        {
          "name": "",
          "type": "bool"
        }
      ],
      "payable": false,
      "stateMutability": "view",
      "type": "function"
    },
    {
      "constant": true,
      "inputs": [],
      "name": "EC_Head",
      "outputs": [
        {
          "name": "",
          "type": "address"
        }
      ],
      "payable": false,
      "stateMutability": "view",
      "type": "function"
    },
    {
      "constant": true,
      "inputs": [
        {
          "name": "",
          "type": "string"
        },
        {
          "name": "",
          "type": "string"
        },
        {
          "name": "",
          "type": "uint256"
        }
      ],
      "name": "vote_hashes",
      "outputs": [
        {
          "name": "",
          "type": "bytes32"
        }
      ],
      "payable": false,
      "stateMutability": "view",
      "type": "function"
    },
    {
      "inputs": [],
      "payable": false,
      "stateMutability": "nonpayable",
      "type": "constructor"
    },
    {
      "constant": false,
      "inputs": [
        {
          "name": "official",
          "type": "address"
        }
      ],
      "name": "addEcOfficial",
      "outputs": [],
      "payable": false,
      "stateMutability": "nonpayable",
      "type": "function"
    },
    {
      "constant": false,
      "inputs": [
        {
          "name": "official",
          "type": "address"
        }
      ],
      "name": "removeEcOfficial",
      "outputs": [],
      "payable": false,
      "stateMutability": "nonpayable",
      "type": "function"
    },
    {
      "constant": false,
      "inputs": [
        {
          "name": "party_name",
          "type": "string"
        }
      ],
      "name": "addParty",
      "outputs": [],
      "payable": false,
      "stateMutability": "nonpayable",
      "type": "function"
    },
    {
      "constant": false,
      "inputs": [
        {
          "name": "constituency",
          "type": "string"
        }
      ],
      "name": "addConstituency",
      "outputs": [],
      "payable": false,
      "stateMutability": "nonpayable",
      "type": "function"
    },
    {
      "constant": true,
      "inputs": [],
      "name": "getConstituencies",
      "outputs": [
        {
          "name": "",
          "type": "string[]"
        }
      ],
      "payable": false,
      "stateMutability": "view",
      "type": "function"
    },
    {
      "constant": false,
      "inputs": [
        {
          "name": "uuid_hash",
          "type": "bytes32"
        },
        {
          "name": "constituency",
          "type": "string"
        },
        {
          "name": "party",
          "type": "string"
        },
        {
          "name": "vote_hash",
          "type": "bytes32"
        }
      ],
      "name": "registerVote",
      "outputs": [],
      "payable": false,
      "stateMutability": "nonpayable",
      "type": "function"
    },
    {
      "constant": false,
      "inputs": [],
      "name": "calculateVotes",
      "outputs": [
        {
          "name": "",
          "type": "bool"
        }
      ],
      "payable": false,
      "stateMutability": "nonpayable",
      "type": "function"
    },
    {
      "constant": true,
      "inputs": [
        {
          "name": "constituency",
          "type": "string"
        }
      ],
      "name": "getWinner",
      "outputs": [
        {
          "name": "",
          "type": "string"
        }
      ],
      "payable": false,
      "stateMutability": "view",
      "type": "function"
    },
    {
      "constant": true,
      "inputs": [
        {
          "name": "constituency",
          "type": "string"
        },
        {
          "name": "party",
          "type": "string"
        }
      ],
      "name": "getVoteHashes",
      "outputs": [
        {
          "name": "",
          "type": "bytes32[]"
        }
      ],
      "payable": false,
      "stateMutability": "view",
      "type": "function"
    },
    {
      "constant": true,
      "inputs": [
        {
          "name": "constituency",
          "type": "string"
        },
        {
          "name": "party",
          "type": "string"
        }
      ],
      "name": "getVoteCount",
      "outputs": [
        {
          "name": "",
          "type": "uint256"
        }
      ],
      "payable": false,
      "stateMutability": "view",
      "type": "function"
    },
    {
      "constant": false,
      "inputs": [],
      "name": "resetElection",
      "outputs": [
        {
          "name": "",
          "type": "bool"
        }
      ],
      "payable": false,
      "stateMutability": "nonpayable",
      "type": "function"
    }
  ],
  "bytecode": "0x608060405234801561001057600080fd5b50336000806101000a81548173ffffffffffffffffffffffffffffffffffffffff021916908373ffffffffffffffffffffffffffffffffffffffff16021790555060018060003373ffffffffffffffffffffffffffffffffffffffff1673ffffffffffffffffffffffffffffffffffffffff16815260200190815260200160002060006101000a81548160ff0219169083151502179055506000600581905550611c60806100bf6000396000f3fe608060405234801561001057600080fd5b50600436106101375760003560e01c806388149fb9116100b8578063df56ce561161007c578063df56ce5614610374578063e8b2f84b146103a4578063e8f30523146103c0578063e9c8767b146103de578063f2ba18ed146103fc578063f4ffc69c1461041a57610137565b806388149fb9146102aa5780639209416a146102c8578063a294d975146102f8578063ab38b21914610328578063c8695cb11461034457610137565b806342169e48116100ff57806342169e48146101f457806350f10b1f146102125780635b80df901461022e5780635df3e2711461025e57806370651a181461027a57610137565b806305a395a51461013c5780630b817c38146101585780631694fa7d146101765780631b4613cb146101a65780633197cbb6146101d6575b600080fd5b610156600480360361015191908101906113d9565b61044a565b005b61016061048c565b60405161016d919061191f565b60405180910390f35b610190600480360361018b919081019061141a565b610575565b60405161019d91906119db565b60405180910390f35b6101c060048036036101bb919081019061131d565b6105ba565b6040516101cd9190611941565b60405180910390f35b6101de6105da565b6040516101eb91906119db565b60405180910390f35b6101fc6105e0565b60405161020991906119db565b60405180910390f35b61022c60048036036102279190810190611346565b6105e6565b005b610248600480360361024391908101906113d9565b6106ef565b6040516102559190611999565b60405180910390f35b610278600480360361027391908101906113d9565b6107af565b005b610294600480360361028f9190810190611571565b6107f1565b6040516102a19190611977565b60405180910390f35b6102b26108aa565b6040516102bf91906119db565b60405180910390f35b6102e260048036036102dd9190810190611571565b6108b0565b6040516102ef9190611977565b60405180910390f35b610312600480360361030d9190810190611486565b610969565b60405161031f91906119db565b60405180910390f35b610342600480360361033d91908101906112f4565b6109ba565b005b61035e600480360361035991908101906112f4565b610a64565b60405161036b9190611941565b60405180910390f35b61038e6004803603610389919081019061141a565b610a84565b60405161039b91906118fd565b60405180910390f35b6103be60048036036103b991908101906112f4565b610b17565b005b6103c8610b71565b6040516103d59190611941565b60405180910390f35b6103e6610cfc565b6040516103f391906118e2565b60405180910390f35b610404610d21565b6040516104119190611941565b60405180910390f35b610434600480360361042f91908101906114f2565b6110b0565b604051610441919061195c565b60405180910390f35b6002819080600181540180825580915050906001820390600052602060002001600090919290919091509080519060200190610487929190611117565b505050565b60606002805480602002602001604051908101604052809291908181526020016000905b8282101561056c578382906000526020600020018054600181600116156101000203166002900480601f0160208091040260200160405190810160405280929190818152602001828054600181600116156101000203166002900480156105585780601f1061052d57610100808354040283529160200191610558565b820191906000526020600020905b81548152906001019060200180831161053b57829003601f168201915b5050505050815260200190600101906104b0565b50505050905090565b600060078360405161058791906118b4565b9081526020016040518091039020826040516105a391906118b4565b908152602001604051809103902054905092915050565b60046020528060005260406000206000915054906101000a900460ff1681565b600a5481565b60055481565b6004600085815260200190815260200160002060009054906101000a900460ff1615610647576040517f08c379a000000000000000000000000000000000000000000000000000000000815260040161063e906119bb565b60405180910390fd5b60068360405161065791906118b4565b90815260200160405180910390208260405161067391906118b4565b908152602001604051809103902081908060018154018082558091505090600182039060005260206000200160009091929091909150555060056000815480929190600101919050555060016004600086815260200190815260200160002060006101000a81548160ff02191690831515021790555050505050565b606060088260405161070191906118b4565b90815260200160405180910390208054600181600116156101000203166002900480601f0160208091040260200160405190810160405280929190818152602001828054600181600116156101000203166002900480156107a35780601f10610778576101008083540402835291602001916107a3565b820191906000526020600020905b81548152906001019060200180831161078657829003601f168201915b50505050509050919050565b60038190806001815401808255809150509060018203906000526020600020016000909192909190915090805190602001906107ec929190611117565b505050565b600381815481106107fe57fe5b906000526020600020016000915090508054600181600116156101000203166002900480601f0160208091040260200160405190810160405280929190818152602001828054600181600116156101000203166002900480156108a25780601f10610877576101008083540402835291602001916108a2565b820191906000526020600020905b81548152906001019060200180831161088557829003601f168201915b505050505081565b60095481565b600281815481106108bd57fe5b906000526020600020016000915090508054600181600116156101000203166002900480601f0160208091040260200160405190810160405280929190818152602001828054600181600116156101000203166002900480156109615780601f1061093657610100808354040283529160200191610961565b820191906000526020600020905b81548152906001019060200180831161094457829003601f168201915b505050505081565b60078280516020810182018051848252602083016020850120818352809550505050505081805160208101820180518482526020830160208501208183528095505050505050600091509150505481565b6000600160008373ffffffffffffffffffffffffffffffffffffffff1673ffffffffffffffffffffffffffffffffffffffff16815260200190815260200160002060006101000a81548160ff021916908315150217905550600160008273ffffffffffffffffffffffffffffffffffffffff1673ffffffffffffffffffffffffffffffffffffffff16815260200190815260200160002060006101000a81549060ff021916905550565b60016020528060005260406000206000915054906101000a900460ff1681565b6060600683604051610a9691906118b4565b908152602001604051809103902082604051610ab291906118b4565b9081526020016040518091039020805480602002602001604051908101604052809291908181526020018280548015610b0a57602002820191906000526020600020905b815481526020019060010190808311610af6575b5050505050905092915050565b60018060008373ffffffffffffffffffffffffffffffffffffffff1673ffffffffffffffffffffffffffffffffffffffff16815260200190815260200160002060006101000a81548160ff02191690831515021790555050565b600080600090505b600280549050811015610cec5760008090505b600380549050811015610c86576000600760028481548110610baa57fe5b90600052602060002001604051610bc191906118cb565b908152602001604051809103902060038381548110610bdc57fe5b90600052602060002001604051610bf391906118cb565b9081526020016040518091039020819055506000600660028481548110610c1657fe5b90600052602060002001604051610c2d91906118cb565b908152602001604051809103902060038381548110610c4857fe5b90600052602060002001604051610c5f91906118cb565b908152602001604051809103902081610c789190611197565b508080600101915050610b8c565b5060405180602001604052806000815250600860028381548110610ca657fe5b90600052602060002001604051610cbd91906118cb565b90815260200160405180910390209080519060200190610cde929190611117565b508080600101915050610b79565b5060006005819055506001905090565b6000809054906101000a900473ffffffffffffffffffffffffffffffffffffffff1681565b6000606060008090505b6002805490508110156110a7576003600081548110610d4657fe5b906000526020600020018054600181600116156101000203166002900480601f016020809104026020016040519081016040528092919081815260200182805460018160011615610100020316600290048015610de45780601f10610db957610100808354040283529160200191610de4565b820191906000526020600020905b815481529060010190602001808311610dc757829003601f168201915b5050505050915060008090505b60038054905081101561105057600660028381548110610e0d57fe5b90600052602060002001604051610e2491906118cb565b908152602001604051809103902060038281548110610e3f57fe5b90600052602060002001604051610e5691906118cb565b908152602001604051809103902080549050600760028481548110610e7757fe5b90600052602060002001604051610e8e91906118cb565b908152602001604051809103902060038381548110610ea957fe5b90600052602060002001604051610ec091906118cb565b908152602001604051809103902081905550600760028381548110610ee157fe5b90600052602060002001604051610ef891906118cb565b908152602001604051809103902083604051610f1491906118b4565b908152602001604051809103902054600760028481548110610f3257fe5b90600052602060002001604051610f4991906118cb565b908152602001604051809103902060038381548110610f6457fe5b90600052602060002001604051610f7b91906118cb565b90815260200160405180910390205411156110435760038181548110610f9d57fe5b906000526020600020018054600181600116156101000203166002900480601f01602080910402602001604051908101604052809291908181526020018280546001816001161561010002031660029004801561103b5780601f106110105761010080835404028352916020019161103b565b820191906000526020600020905b81548152906001019060200180831161101e57829003601f168201915b505050505092505b8080600101915050610df1565b508160086002838154811061106157fe5b9060005260206000200160405161107891906118cb565b90815260200160405180910390209080519060200190611099929190611117565b508080600101915050610d2b565b50600191505090565b60068380516020810182018051848252602083016020850120818352809550505050505082805160208101820180518482526020830160208501208183528095505050505050818154811061110157fe5b9060005260206000200160009250925050505481565b828054600181600116156101000203166002900490600052602060002090601f016020900481019282601f1061115857805160ff1916838001178555611186565b82800160010185558215611186579182015b8281111561118557825182559160200191906001019061116a565b5b50905061119391906111c3565b5090565b8154818355818111156111be578183600052602060002091820191016111bd91906111e8565b5b505050565b6111e591905b808211156111e15760008160009055506001016111c9565b5090565b90565b61120a91905b808211156112065760008160009055506001016111ee565b5090565b90565b60008135905061121c81611be1565b92915050565b60008135905061123181611bf8565b92915050565b600082601f83011261124857600080fd5b813561125b61125682611a23565b6119f6565b9150808252602083016020830185838301111561127757600080fd5b611282838284611b8e565b50505092915050565b600082601f83011261129c57600080fd5b81356112af6112aa82611a4f565b6119f6565b915080825260208301602083018583830111156112cb57600080fd5b6112d6838284611b8e565b50505092915050565b6000813590506112ee81611c0f565b92915050565b60006020828403121561130657600080fd5b60006113148482850161120d565b91505092915050565b60006020828403121561132f57600080fd5b600061133d84828501611222565b91505092915050565b6000806000806080858703121561135c57600080fd5b600061136a87828801611222565b945050602085013567ffffffffffffffff81111561138757600080fd5b6113938782880161128b565b935050604085013567ffffffffffffffff8111156113b057600080fd5b6113bc8782880161128b565b92505060606113cd87828801611222565b91505092959194509250565b6000602082840312156113eb57600080fd5b600082013567ffffffffffffffff81111561140557600080fd5b6114118482850161128b565b91505092915050565b6000806040838503121561142d57600080fd5b600083013567ffffffffffffffff81111561144757600080fd5b6114538582860161128b565b925050602083013567ffffffffffffffff81111561147057600080fd5b61147c8582860161128b565b9150509250929050565b6000806040838503121561149957600080fd5b600083013567ffffffffffffffff8111156114b357600080fd5b6114bf85828601611237565b925050602083013567ffffffffffffffff8111156114dc57600080fd5b6114e885828601611237565b9150509250929050565b60008060006060848603121561150757600080fd5b600084013567ffffffffffffffff81111561152157600080fd5b61152d86828701611237565b935050602084013567ffffffffffffffff81111561154a57600080fd5b61155686828701611237565b9250506040611567868287016112df565b9150509250925092565b60006020828403121561158357600080fd5b6000611591848285016112df565b91505092915050565b60006115a683836116b7565b60208301905092915050565b60006115be838361173f565b905092915050565b6115cf81611b3c565b82525050565b60006115e082611aa7565b6115ea8185611aed565b93506115f583611a7b565b8060005b8381101561162657815161160d888261159a565b975061161883611ad3565b9250506001810190506115f9565b5085935050505092915050565b600061163e82611ab2565b6116488185611afe565b93508360208202850161165a85611a88565b8060005b85811015611696578484038952815161167785826115b2565b945061168283611ae0565b925060208a0199505060018101905061165e565b50829750879550505050505092915050565b6116b181611b4e565b82525050565b6116c081611b5a565b82525050565b6116cf81611b5a565b82525050565b60006116e082611ac8565b6116ea8185611b20565b93506116fa818560208601611b9d565b61170381611bd0565b840191505092915050565b600061171982611ac8565b6117238185611b31565b9350611733818560208601611b9d565b80840191505092915050565b600061174a82611abd565b6117548185611b0f565b9350611764818560208601611b9d565b61176d81611bd0565b840191505092915050565b600061178382611abd565b61178d8185611b20565b935061179d818560208601611b9d565b6117a681611bd0565b840191505092915050565b6000815460018116600081146117ce57600181146117f357611837565b607f60028304166117df8187611b31565b955060ff1983168652808601935050611837565b600282046118018187611b31565b955061180c85611a95565b60005b8281101561182e5781548189015260018201915060208101905061180f565b82880195505050505b505092915050565b600061184c602683611b20565b91507f54686520766f7465722068617320616c726561647920766f7465642e2041626f60008301527f7274696e672e00000000000000000000000000000000000000000000000000006020830152604082019050919050565b6118ae81611b84565b82525050565b60006118c0828461170e565b915081905092915050565b60006118d782846117b1565b915081905092915050565b60006020820190506118f760008301846115c6565b92915050565b6000602082019050818103600083015261191781846115d5565b905092915050565b600060208201905081810360008301526119398184611633565b905092915050565b600060208201905061195660008301846116a8565b92915050565b600060208201905061197160008301846116c6565b92915050565b600060208201905081810360008301526119918184611778565b905092915050565b600060208201905081810360008301526119b381846116d5565b905092915050565b600060208201905081810360008301526119d48161183f565b9050919050565b60006020820190506119f060008301846118a5565b92915050565b6000604051905081810181811067ffffffffffffffff82111715611a1957600080fd5b8060405250919050565b600067ffffffffffffffff821115611a3a57600080fd5b601f19601f8301169050602081019050919050565b600067ffffffffffffffff821115611a6657600080fd5b601f19601f8301169050602081019050919050565b6000602082019050919050565b6000602082019050919050565b60008160005260206000209050919050565b600081519050919050565b600081519050919050565b600081519050919050565b600081519050919050565b6000602082019050919050565b6000602082019050919050565b600082825260208201905092915050565b600082825260208201905092915050565b600082825260208201905092915050565b600082825260208201905092915050565b600081905092915050565b6000611b4782611b64565b9050919050565b60008115159050919050565b6000819050919050565b600073ffffffffffffffffffffffffffffffffffffffff82169050919050565b6000819050919050565b82818337600083830152505050565b60005b83811015611bbb578082015181840152602081019050611ba0565b83811115611bca576000848401525b50505050565b6000601f19601f8301169050919050565b611bea81611b3c565b8114611bf557600080fd5b50565b611c0181611b5a565b8114611c0c57600080fd5b50565b611c1881611b84565b8114611c2357600080fd5b5056fea265627a7a723058207304aa1f5c7a5f2ee00118bc893fcd93a88f1286519f775f5c4561e75599cfa86c6578706572696d656e74616cf50037",
  "source": "pragma solidity ^0.5.0;\npragma experimental ABIEncoderV2;\n\n// import \"./VoteVault.sol\";\n\ncontract Election {\n \n    address public EC_Head;\n    mapping(address => bool) public ec_officials;\n\n    // event Approval(address indexed tokenOwner, address indexed spender, uint tokens);\n    // event Transfer(address indexed from, address indexed to, uint tokens);\n\n    string[] public  constituencies;\n    string[] public parties;\n    // mapping(uint8 => string) public partyName;\n    mapping(bytes32 => bool) public hasVoted;\n    \n    uint public voterCount;\n    mapping(string => mapping (string => bytes32[])) public vote_hashes;\n    mapping(string => mapping (string => uint)) public result;\n    mapping(string => string)  winner;\n\n    // Vault opens/opened at this time\n    uint256 public beginTime;\n    \n    // Vault closes/Closed at this times\n    uint256 public endTime;\n    \n   \n\n    using SafeMath for uint;\n    \n    modifier onlyEcHead {\n        require((msg.sender == EC_Head), \"You are not Authorized to make this function Call.\");\n        _;\n    }\n    modifier onlyEcOfficial {\n        require((ec_officials[msg.sender]), \"You are not Authorized to make this function Call.\");\n        _;\n    }\n\n\n   constructor() public {  \n\t\n    EC_Head = msg.sender;\n    ec_officials[msg.sender] = true;\n    voterCount = 0;\n    }  \n\n    function addEcOfficial (address official) public {\n        ec_officials[official] = true;\n    }\n    function removeEcOfficial(address official) public {\n        ec_officials[official] = false;\n        delete ec_officials[official];\n    }\n\n    function addParty (string memory party_name) public {\n        // require(!isVaultOpened);\n        // require(beginTime >= uint256(now), \"Cannot add a party after the elections have started.\");\n        parties.push(party_name);\n    }\n    function addConstituency (string memory constituency) public {\n        // require(!isVaultOpened);\n        // require(beginTime >= uint256(now), \"Cannot add a constituency after the elections have started.\");\n        constituencies.push(constituency);\n    }\n\n    function getConstituencies() public view returns(string[] memory){\n        return constituencies;\n    }\n\n    function registerVote(bytes32 uuid_hash, string memory constituency, string memory party,  bytes32 vote_hash) public {\n        // require(!vaultSealed);\n        // require(isVaultOpened);\n        // require(beginTime <= uint256(now), \"The elections haven't started yet\");\n        // require(endTime >= uint256(now), \"The election period is over\");\n        require(!(hasVoted[uuid_hash]), \"The voter has already voted. Aborting.\");\n\n        vote_hashes[constituency][party].push(vote_hash);\n        voterCount++;\n        hasVoted[uuid_hash] = true;\n    }\n\n    function calculateVotes() public returns (bool) {\n        // require(endTime <= uint256(now), \"The election period is not over. Can't calculate the votes before election ends.\");\n        string memory _winner;\n\n        for (uint i = 0; i < constituencies.length; i++)\n        {\n            _winner = parties[0];\n            for (uint j = 0; j < parties.length; j++){\n                 result[constituencies[i]][parties[j]] = vote_hashes[constituencies[i]][parties[j]].length;\n                if ( result[constituencies[i]][parties[j]] > result[constituencies[i]][_winner]){\n                    _winner = parties[j];\n                }\n            }\n             winner[constituencies[i]] = _winner;\n        }\n        return true;\n    }\n\n    function getWinner(string memory constituency) public view returns (string memory) {\n        return  winner[constituency];\n    }\n    function getVoteHashes(string memory constituency, string memory party) public view returns (bytes32[] memory) {\n        return  vote_hashes[constituency][party];\n    }\n    function getVoteCount(string memory constituency, string memory party) public view returns (uint) {\n        return  result[constituency][party];\n    }\n\n    function resetElection() public returns(bool){\n        for (uint i = 0; i < constituencies.length; i++)\n        {\n            for (uint j = 0; j < parties.length; j++){\n                 result[constituencies[i]][parties[j]] = 0;\n                 vote_hashes[constituencies[i]][parties[j]].length = 0;\n\n            }\n             winner[constituencies[i]] = \"\";\n        }\n        voterCount = 0;\n        return true;\n    }\n}\n\nlibrary SafeMath { \n    function sub(uint256 a, uint256 b) internal pure returns (uint256) {\n      assert(b <= a);\n      return a - b;\n    }\n    \n    function add(uint256 a, uint256 b) internal pure returns (uint256) {\n      uint256 c = a + b;\n      assert(c >= a);\n      return c;\n    }\n}\n",
  "sourcePath": "/Users/smitrajput/Projects/VoteX/Dapp/contracts/Election.sol",
  "compiler": {
    "name": "solc",
    "version": "0.5.8+commit.23d335f2.Emscripten.clang"
  },
  "schemaVersion": "3.0.16",
  "updatedAt": "2019-10-06T06:44:48.125Z",
  "devdoc": {
    "methods": {}
  },
  "userdoc": {
    "methods": {}
  }
}