{
  "contractName": "Election",
  "abi": [
    {
      "constant": true,
      "inputs": [
        {
          "name": "",
          "type": "bytes32"
        }
      ],
      "name": "hasVoted",
      "outputs": [
        {
          "name": "",
          "type": "bool"
        }
      ],
      "payable": false,
      "stateMutability": "view",
      "type": "function"
    },
    {
      "constant": true,
      "inputs": [],
      "name": "endTime",
      "outputs": [
        {
          "name": "",
          "type": "uint256"
        }
      ],
      "payable": false,
      "stateMutability": "view",
      "type": "function"
    },
    {
      "constant": true,
      "inputs": [],
      "name": "voterCount",
      "outputs": [
        {
          "name": "",
          "type": "uint256"
        }
      ],
      "payable": false,
      "stateMutability": "view",
      "type": "function"
    },
    {
      "constant": true,
      "inputs": [
        {
          "name": "",
          "type": "uint256"
        }
      ],
      "name": "parties",
      "outputs": [
        {
          "name": "",
          "type": "string"
        }
      ],
      "payable": false,
      "stateMutability": "view",
      "type": "function"
    },
    {
      "constant": true,
      "inputs": [],
      "name": "beginTime",
      "outputs": [
        {
          "name": "",
          "type": "uint256"
        }
      ],
      "payable": false,
      "stateMutability": "view",
      "type": "function"
    },
    {
      "constant": true,
      "inputs": [
        {
          "name": "",
          "type": "uint256"
        }
      ],
      "name": "constituencies",
      "outputs": [
        {
          "name": "",
          "type": "string"
        }
      ],
      "payable": false,
      "stateMutability": "view",
      "type": "function"
    },
    {
      "constant": true,
      "inputs": [
        {
          "name": "",
          "type": "string"
        },
        {
          "name": "",
          "type": "string"
        }
      ],
      "name": "result",
      "outputs": [
        {
          "name": "",
          "type": "uint256"
        }
      ],
      "payable": false,
      "stateMutability": "view",
      "type": "function"
    },
    {
      "constant": true,
      "inputs": [
        {
          "name": "",
          "type": "address"
        }
      ],
      "name": "ec_officials",
      "outputs": [
        {
          "name": "",
          "type": "bool"
        }
      ],
      "payable": false,
      "stateMutability": "view",
      "type": "function"
    },
    {
      "constant": true,
      "inputs": [],
      "name": "EC_Head",
      "outputs": [
        {
          "name": "",
          "type": "address"
        }
      ],
      "payable": false,
      "stateMutability": "view",
      "type": "function"
    },
    {
      "constant": true,
      "inputs": [
        {
          "name": "",
          "type": "string"
        },
        {
          "name": "",
          "type": "string"
        },
        {
          "name": "",
          "type": "uint256"
        }
      ],
      "name": "vote_hashes",
      "outputs": [
        {
          "name": "",
          "type": "bytes32"
        }
      ],
      "payable": false,
      "stateMutability": "view",
      "type": "function"
    },
    {
      "inputs": [],
      "payable": false,
      "stateMutability": "nonpayable",
      "type": "constructor"
    },
    {
      "constant": false,
      "inputs": [
        {
          "name": "official",
          "type": "address"
        }
      ],
      "name": "addEcOfficial",
      "outputs": [],
      "payable": false,
      "stateMutability": "nonpayable",
      "type": "function"
    },
    {
      "constant": false,
      "inputs": [
        {
          "name": "official",
          "type": "address"
        }
      ],
      "name": "removeEcOfficial",
      "outputs": [],
      "payable": false,
      "stateMutability": "nonpayable",
      "type": "function"
    },
    {
      "constant": false,
      "inputs": [
        {
          "name": "party_name",
          "type": "string"
        }
      ],
      "name": "addParty",
      "outputs": [],
      "payable": false,
      "stateMutability": "nonpayable",
      "type": "function"
    },
    {
      "constant": false,
      "inputs": [
        {
          "name": "constituency",
          "type": "string"
        }
      ],
      "name": "addConstituency",
      "outputs": [],
      "payable": false,
      "stateMutability": "nonpayable",
      "type": "function"
    },
    {
      "constant": true,
      "inputs": [],
      "name": "getConstituencies",
      "outputs": [
        {
          "name": "",
          "type": "string[]"
        }
      ],
      "payable": false,
      "stateMutability": "view",
      "type": "function"
    },
    {
      "constant": false,
      "inputs": [
        {
          "name": "uuid_hash",
          "type": "bytes32"
        },
        {
          "name": "constituency",
          "type": "string"
        },
        {
          "name": "party",
          "type": "string"
        },
        {
          "name": "vote_hash",
          "type": "bytes32"
        }
      ],
      "name": "registerVote",
      "outputs": [],
      "payable": false,
      "stateMutability": "nonpayable",
      "type": "function"
    },
    {
      "constant": false,
      "inputs": [],
      "name": "calculateVotes",
      "outputs": [
        {
          "name": "",
          "type": "bool"
        }
      ],
      "payable": false,
      "stateMutability": "nonpayable",
      "type": "function"
    },
    {
      "constant": true,
      "inputs": [
        {
          "name": "constituency",
          "type": "string"
        }
      ],
      "name": "getWinner",
      "outputs": [
        {
          "name": "",
          "type": "string"
        }
      ],
      "payable": false,
      "stateMutability": "view",
      "type": "function"
    },
    {
      "constant": true,
      "inputs": [
        {
          "name": "constituency",
          "type": "string"
        },
        {
          "name": "party",
          "type": "string"
        }
      ],
      "name": "getVoteHashes",
      "outputs": [
        {
          "name": "",
          "type": "bytes32[]"
        }
      ],
      "payable": false,
      "stateMutability": "view",
      "type": "function"
    },
    {
      "constant": true,
      "inputs": [
        {
          "name": "constituency",
          "type": "string"
        },
        {
          "name": "party",
          "type": "string"
        }
      ],
      "name": "getVoteCount",
      "outputs": [
        {
          "name": "",
          "type": "uint256"
        }
      ],
      "payable": false,
      "stateMutability": "view",
      "type": "function"
    },
    {
      "constant": false,
      "inputs": [],
      "name": "resetElection",
      "outputs": [
        {
          "name": "",
          "type": "bool"
        }
      ],
      "payable": false,
      "stateMutability": "nonpayable",
      "type": "function"
    }
  ],
  "bytecode": "0x608060405234801561001057600080fd5b50336000806101000a81548173ffffffffffffffffffffffffffffffffffffffff021916908373ffffffffffffffffffffffffffffffffffffffff16021790555060018060003373ffffffffffffffffffffffffffffffffffffffff1673ffffffffffffffffffffffffffffffffffffffff16815260200190815260200160002060006101000a81548160ff021916908315150217905550600060058190555061203a806100bf6000396000f3fe608060405234801561001057600080fd5b50600436106101375760003560e01c806388149fb9116100b8578063df56ce561161007c578063df56ce5614610374578063e8b2f84b146103a4578063e8f30523146103c0578063e9c8767b146103de578063f2ba18ed146103fc578063f4ffc69c1461041a57610137565b806388149fb9146102aa5780639209416a146102c8578063a294d975146102f8578063ab38b21914610328578063c8695cb11461034457610137565b806342169e48116100ff57806342169e48146101f457806350f10b1f146102125780635b80df901461022e5780635df3e2711461025e57806370651a181461027a57610137565b806305a395a51461013c5780630b817c38146101585780631694fa7d146101765780631b4613cb146101a65780633197cbb6146101d6575b600080fd5b6101566004803603610151919081019061172d565b61044a565b005b610160610518565b60405161016d9190611cd9565b60405180910390f35b610190600480360361018b919081019061176e565b610601565b60405161019d9190611db5565b60405180910390f35b6101c060048036036101bb9190810190611671565b610646565b6040516101cd9190611cfb565b60405180910390f35b6101de610666565b6040516101eb9190611db5565b60405180910390f35b6101fc61066c565b6040516102099190611db5565b60405180910390f35b61022c6004803603610227919081019061169a565b610672565b005b6102486004803603610243919081019061172d565b61077b565b6040516102559190611d53565b60405180910390f35b6102786004803603610273919081019061172d565b61083b565b005b610294600480360361028f91908101906118c5565b610909565b6040516102a19190611d31565b60405180910390f35b6102b26109c2565b6040516102bf9190611db5565b60405180910390f35b6102e260048036036102dd91908101906118c5565b6109c8565b6040516102ef9190611d31565b60405180910390f35b610312600480360361030d91908101906117da565b610a81565b60405161031f9190611db5565b60405180910390f35b610342600480360361033d9190810190611648565b610ad2565b005b61035e60048036036103599190810190611648565b610c0b565b60405161036b9190611cfb565b60405180910390f35b61038e6004803603610389919081019061176e565b610c2b565b60405161039b9190611cb7565b60405180910390f35b6103be60048036036103b99190810190611648565b610cbe565b005b6103c8610da7565b6040516103d59190611cfb565b60405180910390f35b6103e6610fc1565b6040516103f39190611c9c565b60405180910390f35b610404610fe6565b6040516104119190611cfb565b60405180910390f35b610434600480360361042f9190810190611846565b611404565b6040516104419190611d16565b60405180910390f35b600160003373ffffffffffffffffffffffffffffffffffffffff1673ffffffffffffffffffffffffffffffffffffffff16815260200190815260200160002060009054906101000a900460ff166104d6576040517f08c379a00000000000000000000000000000000000000000000000000000000081526004016104cd90611d95565b60405180910390fd5b600281908060018154018082558091505090600182039060005260206000200160009091929091909150908051906020019061051392919061146b565b505050565b60606002805480602002602001604051908101604052809291908181526020016000905b828210156105f8578382906000526020600020018054600181600116156101000203166002900480601f0160208091040260200160405190810160405280929190818152602001828054600181600116156101000203166002900480156105e45780601f106105b9576101008083540402835291602001916105e4565b820191906000526020600020905b8154815290600101906020018083116105c757829003601f168201915b50505050508152602001906001019061053c565b50505050905090565b60006007836040516106139190611c6e565b90815260200160405180910390208260405161062f9190611c6e565b908152602001604051809103902054905092915050565b60046020528060005260406000206000915054906101000a900460ff1681565b600a5481565b60055481565b6004600085815260200190815260200160002060009054906101000a900460ff16156106d3576040517f08c379a00000000000000000000000000000000000000000000000000000000081526004016106ca90611d75565b60405180910390fd5b6006836040516106e39190611c6e565b9081526020016040518091039020826040516106ff9190611c6e565b908152602001604051809103902081908060018154018082558091505090600182039060005260206000200160009091929091909150555060056000815480929190600101919050555060016004600086815260200190815260200160002060006101000a81548160ff02191690831515021790555050505050565b606060088260405161078d9190611c6e565b90815260200160405180910390208054600181600116156101000203166002900480601f01602080910402602001604051908101604052809291908181526020018280546001816001161561010002031660029004801561082f5780601f106108045761010080835404028352916020019161082f565b820191906000526020600020905b81548152906001019060200180831161081257829003601f168201915b50505050509050919050565b600160003373ffffffffffffffffffffffffffffffffffffffff1673ffffffffffffffffffffffffffffffffffffffff16815260200190815260200160002060009054906101000a900460ff166108c7576040517f08c379a00000000000000000000000000000000000000000000000000000000081526004016108be90611d95565b60405180910390fd5b600381908060018154018082558091505090600182039060005260206000200160009091929091909150908051906020019061090492919061146b565b505050565b6003818154811061091657fe5b906000526020600020016000915090508054600181600116156101000203166002900480601f0160208091040260200160405190810160405280929190818152602001828054600181600116156101000203166002900480156109ba5780601f1061098f576101008083540402835291602001916109ba565b820191906000526020600020905b81548152906001019060200180831161099d57829003601f168201915b505050505081565b60095481565b600281815481106109d557fe5b906000526020600020016000915090508054600181600116156101000203166002900480601f016020809104026020016040519081016040528092919081815260200182805460018160011615610100020316600290048015610a795780601f10610a4e57610100808354040283529160200191610a79565b820191906000526020600020905b815481529060010190602001808311610a5c57829003601f168201915b505050505081565b60078280516020810182018051848252602083016020850120818352809550505050505081805160208101820180518482526020830160208501208183528095505050505050600091509150505481565b6000809054906101000a900473ffffffffffffffffffffffffffffffffffffffff1673ffffffffffffffffffffffffffffffffffffffff163373ffffffffffffffffffffffffffffffffffffffff1614610b61576040517f08c379a0000000000000000000000000000000000000000000000000000000008152600401610b5890611d95565b60405180910390fd5b6000600160008373ffffffffffffffffffffffffffffffffffffffff1673ffffffffffffffffffffffffffffffffffffffff16815260200190815260200160002060006101000a81548160ff021916908315150217905550600160008273ffffffffffffffffffffffffffffffffffffffff1673ffffffffffffffffffffffffffffffffffffffff16815260200190815260200160002060006101000a81549060ff021916905550565b60016020528060005260406000206000915054906101000a900460ff1681565b6060600683604051610c3d9190611c6e565b908152602001604051809103902082604051610c599190611c6e565b9081526020016040518091039020805480602002602001604051908101604052809291908181526020018280548015610cb157602002820191906000526020600020905b815481526020019060010190808311610c9d575b5050505050905092915050565b6000809054906101000a900473ffffffffffffffffffffffffffffffffffffffff1673ffffffffffffffffffffffffffffffffffffffff163373ffffffffffffffffffffffffffffffffffffffff1614610d4d576040517f08c379a0000000000000000000000000000000000000000000000000000000008152600401610d4490611d95565b60405180910390fd5b60018060008373ffffffffffffffffffffffffffffffffffffffff1673ffffffffffffffffffffffffffffffffffffffff16815260200190815260200160002060006101000a81548160ff02191690831515021790555050565b60008060009054906101000a900473ffffffffffffffffffffffffffffffffffffffff1673ffffffffffffffffffffffffffffffffffffffff163373ffffffffffffffffffffffffffffffffffffffff1614610e38576040517f08c379a0000000000000000000000000000000000000000000000000000000008152600401610e2f90611d95565b60405180910390fd5b60008090505b600280549050811015610fb15760008090505b600380549050811015610f4b576000600760028481548110610e6f57fe5b90600052602060002001604051610e869190611c85565b908152602001604051809103902060038381548110610ea157fe5b90600052602060002001604051610eb89190611c85565b9081526020016040518091039020819055506000600660028481548110610edb57fe5b90600052602060002001604051610ef29190611c85565b908152602001604051809103902060038381548110610f0d57fe5b90600052602060002001604051610f249190611c85565b908152602001604051809103902081610f3d91906114eb565b508080600101915050610e51565b5060405180602001604052806000815250600860028381548110610f6b57fe5b90600052602060002001604051610f829190611c85565b90815260200160405180910390209080519060200190610fa392919061146b565b508080600101915050610e3e565b5060006005819055506001905090565b6000809054906101000a900473ffffffffffffffffffffffffffffffffffffffff1681565b60008060009054906101000a900473ffffffffffffffffffffffffffffffffffffffff1673ffffffffffffffffffffffffffffffffffffffff163373ffffffffffffffffffffffffffffffffffffffff1614611077576040517f08c379a000000000000000000000000000000000000000000000000000000000815260040161106e90611d95565b60405180910390fd5b606060008090505b6002805490508110156113fb57600360008154811061109a57fe5b906000526020600020018054600181600116156101000203166002900480601f0160208091040260200160405190810160405280929190818152602001828054600181600116156101000203166002900480156111385780601f1061110d57610100808354040283529160200191611138565b820191906000526020600020905b81548152906001019060200180831161111b57829003601f168201915b5050505050915060008090505b6003805490508110156113a45760066002838154811061116157fe5b906000526020600020016040516111789190611c85565b90815260200160405180910390206003828154811061119357fe5b906000526020600020016040516111aa9190611c85565b9081526020016040518091039020805490506007600284815481106111cb57fe5b906000526020600020016040516111e29190611c85565b9081526020016040518091039020600383815481106111fd57fe5b906000526020600020016040516112149190611c85565b90815260200160405180910390208190555060076002838154811061123557fe5b9060005260206000200160405161124c9190611c85565b9081526020016040518091039020836040516112689190611c6e565b90815260200160405180910390205460076002848154811061128657fe5b9060005260206000200160405161129d9190611c85565b9081526020016040518091039020600383815481106112b857fe5b906000526020600020016040516112cf9190611c85565b908152602001604051809103902054111561139757600381815481106112f157fe5b906000526020600020018054600181600116156101000203166002900480601f01602080910402602001604051908101604052809291908181526020018280546001816001161561010002031660029004801561138f5780601f106113645761010080835404028352916020019161138f565b820191906000526020600020905b81548152906001019060200180831161137257829003601f168201915b505050505092505b8080600101915050611145565b50816008600283815481106113b557fe5b906000526020600020016040516113cc9190611c85565b908152602001604051809103902090805190602001906113ed92919061146b565b50808060010191505061107f565b50600191505090565b60068380516020810182018051848252602083016020850120818352809550505050505082805160208101820180518482526020830160208501208183528095505050505050818154811061145557fe5b9060005260206000200160009250925050505481565b828054600181600116156101000203166002900490600052602060002090601f016020900481019282601f106114ac57805160ff19168380011785556114da565b828001600101855582156114da579182015b828111156114d95782518255916020019190600101906114be565b5b5090506114e79190611517565b5090565b81548183558181111561151257818360005260206000209182019101611511919061153c565b5b505050565b61153991905b8082111561153557600081600090555060010161151d565b5090565b90565b61155e91905b8082111561155a576000816000905550600101611542565b5090565b90565b60008135905061157081611fbb565b92915050565b60008135905061158581611fd2565b92915050565b600082601f83011261159c57600080fd5b81356115af6115aa82611dfd565b611dd0565b915080825260208301602083018583830111156115cb57600080fd5b6115d6838284611f68565b50505092915050565b600082601f8301126115f057600080fd5b81356116036115fe82611e29565b611dd0565b9150808252602083016020830185838301111561161f57600080fd5b61162a838284611f68565b50505092915050565b60008135905061164281611fe9565b92915050565b60006020828403121561165a57600080fd5b600061166884828501611561565b91505092915050565b60006020828403121561168357600080fd5b600061169184828501611576565b91505092915050565b600080600080608085870312156116b057600080fd5b60006116be87828801611576565b945050602085013567ffffffffffffffff8111156116db57600080fd5b6116e7878288016115df565b935050604085013567ffffffffffffffff81111561170457600080fd5b611710878288016115df565b925050606061172187828801611576565b91505092959194509250565b60006020828403121561173f57600080fd5b600082013567ffffffffffffffff81111561175957600080fd5b611765848285016115df565b91505092915050565b6000806040838503121561178157600080fd5b600083013567ffffffffffffffff81111561179b57600080fd5b6117a7858286016115df565b925050602083013567ffffffffffffffff8111156117c457600080fd5b6117d0858286016115df565b9150509250929050565b600080604083850312156117ed57600080fd5b600083013567ffffffffffffffff81111561180757600080fd5b6118138582860161158b565b925050602083013567ffffffffffffffff81111561183057600080fd5b61183c8582860161158b565b9150509250929050565b60008060006060848603121561185b57600080fd5b600084013567ffffffffffffffff81111561187557600080fd5b6118818682870161158b565b935050602084013567ffffffffffffffff81111561189e57600080fd5b6118aa8682870161158b565b92505060406118bb86828701611633565b9150509250925092565b6000602082840312156118d757600080fd5b60006118e584828501611633565b91505092915050565b60006118fa8383611a0b565b60208301905092915050565b60006119128383611a93565b905092915050565b61192381611f16565b82525050565b600061193482611e81565b61193e8185611ec7565b935061194983611e55565b8060005b8381101561197a57815161196188826118ee565b975061196c83611ead565b92505060018101905061194d565b5085935050505092915050565b600061199282611e8c565b61199c8185611ed8565b9350836020820285016119ae85611e62565b8060005b858110156119ea57848403895281516119cb8582611906565b94506119d683611eba565b925060208a019950506001810190506119b2565b50829750879550505050505092915050565b611a0581611f28565b82525050565b611a1481611f34565b82525050565b611a2381611f34565b82525050565b6000611a3482611ea2565b611a3e8185611efa565b9350611a4e818560208601611f77565b611a5781611faa565b840191505092915050565b6000611a6d82611ea2565b611a778185611f0b565b9350611a87818560208601611f77565b80840191505092915050565b6000611a9e82611e97565b611aa88185611ee9565b9350611ab8818560208601611f77565b611ac181611faa565b840191505092915050565b6000611ad782611e97565b611ae18185611efa565b9350611af1818560208601611f77565b611afa81611faa565b840191505092915050565b600081546001811660008114611b225760018114611b4757611b8b565b607f6002830416611b338187611f0b565b955060ff1983168652808601935050611b8b565b60028204611b558187611f0b565b9550611b6085611e6f565b60005b82811015611b8257815481890152600182019150602081019050611b63565b82880195505050505b505092915050565b6000611ba0602683611efa565b91507f54686520766f7465722068617320616c726561647920766f7465642e2041626f60008301527f7274696e672e00000000000000000000000000000000000000000000000000006020830152604082019050919050565b6000611c06603283611efa565b91507f596f7520617265206e6f7420417574686f72697a656420746f206d616b65207460008301527f6869732066756e6374696f6e2043616c6c2e00000000000000000000000000006020830152604082019050919050565b611c6881611f5e565b82525050565b6000611c7a8284611a62565b915081905092915050565b6000611c918284611b05565b915081905092915050565b6000602082019050611cb1600083018461191a565b92915050565b60006020820190508181036000830152611cd18184611929565b905092915050565b60006020820190508181036000830152611cf38184611987565b905092915050565b6000602082019050611d1060008301846119fc565b92915050565b6000602082019050611d2b6000830184611a1a565b92915050565b60006020820190508181036000830152611d4b8184611acc565b905092915050565b60006020820190508181036000830152611d6d8184611a29565b905092915050565b60006020820190508181036000830152611d8e81611b93565b9050919050565b60006020820190508181036000830152611dae81611bf9565b9050919050565b6000602082019050611dca6000830184611c5f565b92915050565b6000604051905081810181811067ffffffffffffffff82111715611df357600080fd5b8060405250919050565b600067ffffffffffffffff821115611e1457600080fd5b601f19601f8301169050602081019050919050565b600067ffffffffffffffff821115611e4057600080fd5b601f19601f8301169050602081019050919050565b6000602082019050919050565b6000602082019050919050565b60008160005260206000209050919050565b600081519050919050565b600081519050919050565b600081519050919050565b600081519050919050565b6000602082019050919050565b6000602082019050919050565b600082825260208201905092915050565b600082825260208201905092915050565b600082825260208201905092915050565b600082825260208201905092915050565b600081905092915050565b6000611f2182611f3e565b9050919050565b60008115159050919050565b6000819050919050565b600073ffffffffffffffffffffffffffffffffffffffff82169050919050565b6000819050919050565b82818337600083830152505050565b60005b83811015611f95578082015181840152602081019050611f7a565b83811115611fa4576000848401525b50505050565b6000601f19601f8301169050919050565b611fc481611f16565b8114611fcf57600080fd5b50565b611fdb81611f34565b8114611fe657600080fd5b50565b611ff281611f5e565b8114611ffd57600080fd5b5056fea265627a7a723058206311d541aaa249ca8b0ce3851e1217fc56b170d047e84c3ec2379b8c9bfd99ef6c6578706572696d656e74616cf50037",
  "source": "pragma solidity ^0.5.0;\npragma experimental ABIEncoderV2;\n\n// import \"./VoteVault.sol\";\n\ncontract Election {\n \n    address public EC_Head;\n    mapping(address => bool) public ec_officials;\n\n    // event Approval(address indexed tokenOwner, address indexed spender, uint tokens);\n    // event Transfer(address indexed from, address indexed to, uint tokens);\n\n    string[] public  constituencies;\n    string[] public parties;\n    // mapping(uint8 => string) public partyName;\n    mapping(bytes32 => bool) public hasVoted;\n    \n    uint public voterCount;\n    mapping(string => mapping (string => bytes32[])) public vote_hashes;\n    mapping(string => mapping (string => uint)) public result;\n    mapping(string => string)  winner;\n\n    // Vault opens/opened at this time\n    uint256 public beginTime;\n    \n    // Vault closes/Closed at this times\n    uint256 public endTime;\n    \n   \n\n    using SafeMath for uint;\n    \n    modifier onlyEcHead {\n        require((msg.sender == EC_Head), \"You are not Authorized to make this function Call.\");\n        _;\n    }\n    modifier onlyEcOfficial {\n        require((ec_officials[msg.sender]), \"You are not Authorized to make this function Call.\");\n        _;\n    }\n\n\n   constructor() public {  \n\t\n    EC_Head = msg.sender;\n    ec_officials[msg.sender] = true;\n    voterCount = 0;\n    }  \n\n    function addEcOfficial (address official) public onlyEcHead {\n        ec_officials[official] = true;\n    }\n    function removeEcOfficial(address official) public onlyEcHead {\n        ec_officials[official] = false;\n        delete ec_officials[official];\n    }\n\n    function addParty (string memory party_name) public onlyEcOfficial {\n        // require(!isVaultOpened);\n        // require(beginTime >= uint256(now), \"Cannot add a party after the elections have started.\");\n        parties.push(party_name);\n    }\n    function addConstituency (string memory constituency) public onlyEcOfficial{\n        // require(!isVaultOpened);\n        // require(beginTime >= uint256(now), \"Cannot add a constituency after the elections have started.\");\n        constituencies.push(constituency);\n    }\n\n    function getConstituencies() public view returns(string[] memory){\n        return constituencies;\n    }\n\n    function registerVote(bytes32 uuid_hash, string memory constituency, string memory party,  bytes32 vote_hash) public {\n        // require(!vaultSealed);\n        // require(isVaultOpened);\n        // require(beginTime <= uint256(now), \"The elections haven't started yet\");\n        // require(endTime >= uint256(now), \"The election period is over\");\n        require(!(hasVoted[uuid_hash]), \"The voter has already voted. Aborting.\");\n\n        vote_hashes[constituency][party].push(vote_hash);\n        voterCount++;\n        hasVoted[uuid_hash] = true;\n    }\n\n    function calculateVotes() public  onlyEcHead returns (bool) {\n        // require(endTime <= uint256(now), \"The election period is not over. Can't calculate the votes before election ends.\");\n        string memory _winner;\n\n        for (uint i = 0; i < constituencies.length; i++)\n        {\n            _winner = parties[0];\n            for (uint j = 0; j < parties.length; j++){\n                 result[constituencies[i]][parties[j]] = vote_hashes[constituencies[i]][parties[j]].length;\n                if ( result[constituencies[i]][parties[j]] > result[constituencies[i]][_winner]){\n                    _winner = parties[j];\n                }\n            }\n             winner[constituencies[i]] = _winner;\n        }\n        return true;\n    }\n\n    function getWinner(string memory constituency) public view returns (string memory) {\n        return  winner[constituency];\n    }\n    function getVoteHashes(string memory constituency, string memory party) public view returns (bytes32[] memory) {\n        return  vote_hashes[constituency][party];\n    }\n    function getVoteCount(string memory constituency, string memory party) public view returns (uint) {\n        return  result[constituency][party];\n    }\n\n    function resetElection() public onlyEcHead returns(bool){\n        for (uint i = 0; i < constituencies.length; i++)\n        {\n            for (uint j = 0; j < parties.length; j++){\n                 result[constituencies[i]][parties[j]] = 0;\n                 vote_hashes[constituencies[i]][parties[j]].length = 0;\n\n            }\n             winner[constituencies[i]] = \"\";\n        }\n        voterCount = 0;\n        return true;\n    }\n}\n\nlibrary SafeMath { \n    function sub(uint256 a, uint256 b) internal pure returns (uint256) {\n      assert(b <= a);\n      return a - b;\n    }\n    \n    function add(uint256 a, uint256 b) internal pure returns (uint256) {\n      uint256 c = a + b;\n      assert(c >= a);\n      return c;\n    }\n}\n",
  "sourcePath": "/home/desciple/Amaal/Excalibur-code-fun-do/Excalibur-voting/Dapp/contracts/Election.sol",
  "compiler": {
    "name": "solc",
    "version": "0.5.8+commit.23d335f2.Emscripten.clang"
  },
  "schemaVersion": "3.0.13",
  "updatedAt": "2019-09-08T08:22:03.143Z",
  "devdoc": {
    "methods": {}
  },
  "userdoc": {
    "methods": {}
  }
}