{
  "contractName": "VoterData",
  "abi": [
    {
      "constant": true,
      "inputs": [
        {
          "name": "",
          "type": "bytes32"
        }
      ],
      "name": "voters",
      "outputs": [
        {
          "name": "Name",
          "type": "string"
        },
        {
          "name": "dob",
          "type": "uint256"
        },
        {
          "name": "voterId",
          "type": "string"
        },
        {
          "name": "verifier",
          "type": "address"
        },
        {
          "name": "verificationTime",
          "type": "uint256"
        }
      ],
      "payable": false,
      "stateMutability": "view",
      "type": "function"
    },
    {
      "constant": true,
      "inputs": [],
      "name": "verified_voter_count",
      "outputs": [
        {
          "name": "",
          "type": "uint256"
        }
      ],
      "payable": false,
      "stateMutability": "view",
      "type": "function"
    },
    {
      "constant": true,
      "inputs": [
        {
          "name": "",
          "type": "address"
        }
      ],
      "name": "ec_officials",
      "outputs": [
        {
          "name": "",
          "type": "bool"
        }
      ],
      "payable": false,
      "stateMutability": "view",
      "type": "function"
    },
    {
      "constant": true,
      "inputs": [
        {
          "name": "",
          "type": "address"
        }
      ],
      "name": "kyc_verifiers",
      "outputs": [
        {
          "name": "",
          "type": "bool"
        }
      ],
      "payable": false,
      "stateMutability": "view",
      "type": "function"
    },
    {
      "constant": true,
      "inputs": [],
      "name": "EC_Head",
      "outputs": [
        {
          "name": "",
          "type": "address"
        }
      ],
      "payable": false,
      "stateMutability": "view",
      "type": "function"
    },
    {
      "inputs": [],
      "payable": false,
      "stateMutability": "nonpayable",
      "type": "constructor"
    },
    {
      "constant": false,
      "inputs": [
        {
          "name": "official",
          "type": "address"
        }
      ],
      "name": "addEcOfficial",
      "outputs": [],
      "payable": false,
      "stateMutability": "nonpayable",
      "type": "function"
    },
    {
      "constant": false,
      "inputs": [
        {
          "name": "official",
          "type": "address"
        }
      ],
      "name": "removeEcOfficial",
      "outputs": [],
      "payable": false,
      "stateMutability": "nonpayable",
      "type": "function"
    },
    {
      "constant": false,
      "inputs": [
        {
          "name": "verifier",
          "type": "address"
        }
      ],
      "name": "addKycVerifier",
      "outputs": [],
      "payable": false,
      "stateMutability": "nonpayable",
      "type": "function"
    },
    {
      "constant": false,
      "inputs": [
        {
          "name": "verifier",
          "type": "address"
        }
      ],
      "name": "removeKycVerifier",
      "outputs": [],
      "payable": false,
      "stateMutability": "nonpayable",
      "type": "function"
    },
    {
      "constant": false,
      "inputs": [
        {
          "name": "uuid_hash",
          "type": "bytes32"
        },
        {
          "name": "name",
          "type": "string"
        },
        {
          "name": "dob",
          "type": "uint256"
        },
        {
          "name": "current_timestamp",
          "type": "uint256"
        }
      ],
      "name": "kycVerify",
      "outputs": [],
      "payable": false,
      "stateMutability": "nonpayable",
      "type": "function"
    },
    {
      "constant": false,
      "inputs": [
        {
          "name": "uuid_hash",
          "type": "bytes32"
        },
        {
          "name": "voterId",
          "type": "string"
        },
        {
          "name": "current_timestamp",
          "type": "uint256"
        }
      ],
      "name": "generateVoterId",
      "outputs": [],
      "payable": false,
      "stateMutability": "nonpayable",
      "type": "function"
    }
  ],
  "bytecode": "0x608060405234801561001057600080fd5b50336000806101000a81548173ffffffffffffffffffffffffffffffffffffffff021916908373ffffffffffffffffffffffffffffffffffffffff1602179055506001600260003373ffffffffffffffffffffffffffffffffffffffff1673ffffffffffffffffffffffffffffffffffffffff16815260200190815260200160002060006101000a81548160ff02191690831515021790555060018060003373ffffffffffffffffffffffffffffffffffffffff1673ffffffffffffffffffffffffffffffffffffffff16815260200190815260200160002060006101000a81548160ff0219169083151502179055506000600481905550610f54806101176000396000f3fe608060405234801561001057600080fd5b50600436106100a95760003560e01c8063ab38b21911610071578063ab38b2191461040c578063c8695cb114610450578063e7e0fff8146104ac578063e8b2f84b14610508578063e9c8767b1461054c578063fc13c2a914610596576100a9565b80631e8e8d9e146100ae57806337f91f23146100f25780634d236f0e1461024657806363984b371461031557806399c9fac414610333575b600080fd5b6100f0600480360360208110156100c457600080fd5b81019080803573ffffffffffffffffffffffffffffffffffffffff1690602001909291905050506105da565b005b61011e6004803603602081101561010857600080fd5b8101908080359060200190929190505050610684565b6040518080602001868152602001806020018573ffffffffffffffffffffffffffffffffffffffff1673ffffffffffffffffffffffffffffffffffffffff168152602001848152602001838103835288818151815260200191508051906020019080838360005b838110156101a0578082015181840152602081019050610185565b50505050905090810190601f1680156101cd5780820380516001836020036101000a031916815260200191505b50838103825286818151815260200191508051906020019080838360005b838110156102065780820151818401526020810190506101eb565b50505050905090810190601f1680156102335780820380516001836020036101000a031916815260200191505b5097505050505050505060405180910390f35b6103136004803603606081101561025c57600080fd5b81019080803590602001909291908035906020019064010000000081111561028357600080fd5b82018360208201111561029557600080fd5b803590602001918460018302840111640100000000831117156102b757600080fd5b91908080601f016020809104026020016040519081016040528093929190818152602001838380828437600081840152601f19601f8201169050808301925050505050505091929192908035906020019092919050505061080a565b005b61031d610b15565b6040518082815260200191505060405180910390f35b61040a6004803603608081101561034957600080fd5b81019080803590602001909291908035906020019064010000000081111561037057600080fd5b82018360208201111561038257600080fd5b803590602001918460018302840111640100000000831117156103a457600080fd5b91908080601f016020809104026020016040519081016040528093929190818152602001838380828437600081840152601f19601f8201169050808301925050505050505091929192908035906020019092919080359060200190929190505050610b1b565b005b61044e6004803603602081101561042257600080fd5b81019080803573ffffffffffffffffffffffffffffffffffffffff169060200190929190505050610c36565b005b6104926004803603602081101561046657600080fd5b81019080803573ffffffffffffffffffffffffffffffffffffffff169060200190929190505050610ce0565b604051808215151515815260200191505060405180910390f35b6104ee600480360360208110156104c257600080fd5b81019080803573ffffffffffffffffffffffffffffffffffffffff169060200190929190505050610d00565b604051808215151515815260200191505060405180910390f35b61054a6004803603602081101561051e57600080fd5b81019080803573ffffffffffffffffffffffffffffffffffffffff169060200190929190505050610d20565b005b610554610d7b565b604051808273ffffffffffffffffffffffffffffffffffffffff1673ffffffffffffffffffffffffffffffffffffffff16815260200191505060405180910390f35b6105d8600480360360208110156105ac57600080fd5b81019080803573ffffffffffffffffffffffffffffffffffffffff169060200190929190505050610da0565b005b6000600160008373ffffffffffffffffffffffffffffffffffffffff1673ffffffffffffffffffffffffffffffffffffffff16815260200190815260200160002060006101000a81548160ff021916908315150217905550600160008273ffffffffffffffffffffffffffffffffffffffff1673ffffffffffffffffffffffffffffffffffffffff16815260200190815260200160002060006101000a81549060ff021916905550565b6003602052806000526040600020600091509050806000018054600181600116156101000203166002900480601f0160208091040260200160405190810160405280929190818152602001828054600181600116156101000203166002900480156107305780601f1061070557610100808354040283529160200191610730565b820191906000526020600020905b81548152906001019060200180831161071357829003601f168201915b505050505090806001015490806002018054600181600116156101000203166002900480601f0160208091040260200160405190810160405280929190818152602001828054600181600116156101000203166002900480156107d45780601f106107a9576101008083540402835291602001916107d4565b820191906000526020600020905b8154815290600101906020018083116107b757829003601f168201915b5050505050908060030160009054906101000a900473ffffffffffffffffffffffffffffffffffffffff16908060040154905085565b610812610dfa565b600360008581526020019081526020016000206040518060a0016040529081600082018054600181600116156101000203166002900480601f0160208091040260200160405190810160405280929190818152602001828054600181600116156101000203166002900480156108c95780601f1061089e576101008083540402835291602001916108c9565b820191906000526020600020905b8154815290600101906020018083116108ac57829003601f168201915b5050505050815260200160018201548152602001600282018054600181600116156101000203166002900480601f0160208091040260200160405190810160405280929190818152602001828054600181600116156101000203166002900480156109755780601f1061094a57610100808354040283529160200191610975565b820191906000526020600020905b81548152906001019060200180831161095857829003601f168201915b505050505081526020016003820160009054906101000a900473ffffffffffffffffffffffffffffffffffffffff1673ffffffffffffffffffffffffffffffffffffffff1673ffffffffffffffffffffffffffffffffffffffff16815260200160048201548152505090506000816020015190506000640757b12c00828503816109fb57fe5b0490506012811015610a58576040517f08c379a0000000000000000000000000000000000000000000000000000000008152600401808060200182810382526044815260200180610ee56044913960600191505060405180910390fd5b84836040018190525082600360008881526020019081526020016000206000820151816000019080519060200190610a91929190610e3f565b50602082015181600101556040820151816002019080519060200190610ab8929190610e3f565b5060608201518160030160006101000a81548173ffffffffffffffffffffffffffffffffffffffff021916908373ffffffffffffffffffffffffffffffffffffffff16021790555060808201518160040155905050505050505050565b60045481565b610b23610dfa565b6040518060a001604052808581526020018481526020016040518060200160405280600081525081526020013373ffffffffffffffffffffffffffffffffffffffff16815260200183815250905080600360008781526020019081526020016000206000820151816000019080519060200190610ba1929190610e3f565b50602082015181600101556040820151816002019080519060200190610bc8929190610e3f565b5060608201518160030160006101000a81548173ffffffffffffffffffffffffffffffffffffffff021916908373ffffffffffffffffffffffffffffffffffffffff160217905550608082015181600401559050506004600081548092919060010191905055505050505050565b6000600260008373ffffffffffffffffffffffffffffffffffffffff1673ffffffffffffffffffffffffffffffffffffffff16815260200190815260200160002060006101000a81548160ff021916908315150217905550600260008273ffffffffffffffffffffffffffffffffffffffff1673ffffffffffffffffffffffffffffffffffffffff16815260200190815260200160002060006101000a81549060ff021916905550565b60026020528060005260406000206000915054906101000a900460ff1681565b60016020528060005260406000206000915054906101000a900460ff1681565b6001600260008373ffffffffffffffffffffffffffffffffffffffff1673ffffffffffffffffffffffffffffffffffffffff16815260200190815260200160002060006101000a81548160ff02191690831515021790555050565b6000809054906101000a900473ffffffffffffffffffffffffffffffffffffffff1681565b60018060008373ffffffffffffffffffffffffffffffffffffffff1673ffffffffffffffffffffffffffffffffffffffff16815260200190815260200160002060006101000a81548160ff02191690831515021790555050565b6040518060a00160405280606081526020016000815260200160608152602001600073ffffffffffffffffffffffffffffffffffffffff168152602001600081525090565b828054600181600116156101000203166002900490600052602060002090601f016020900481019282601f10610e8057805160ff1916838001178555610eae565b82800160010185558215610eae579182015b82811115610ead578251825591602001919060010190610e92565b5b509050610ebb9190610ebf565b5090565b610ee191905b80821115610edd576000816000905550600101610ec5565b5090565b9056fe4e6f7420416c6c6f77656420746f20566f74652e204f6e6c7920656c696769626c6520746f20766f7465206966206167652069732061626f76652031382079656172732ea165627a7a723058209fa4ced3385c42bf2ea945ae2944d308941ff87f31439fdb0ddbe138cd609e730029",
  "source": "pragma solidity ^0.5.0;\n\n\ncontract VoterData {\n    \n    struct Voter {\n        string Name;\n        uint256 dob;\n        string voterId;\n        address verifier;\n        uint256 verificationTime;\n    }\n\n    address public EC_Head;\n    mapping(address => bool) public kyc_verifiers;\n    mapping(address => bool) public ec_officials;\n\n    mapping(bytes32 => Voter) public voters;\n    // mapping(uint256 => Voter) public voters;\n\n    uint256 public verified_voter_count;\n   \n    using SafeMath for uint256;\n    \n    modifier onlyEcHead {\n        require((msg.sender == EC_Head), \"You are not Authorized to make this function Call.\");\n        _;\n    }\n    modifier onlyEcOfficial {\n        require((ec_officials[msg.sender]), \"You are not Authorized to make this function Call.\");\n        _;\n    }\n    modifier onlyKycVerifier {\n        require((kyc_verifiers[msg.sender]), \"You are not Authorized to make this function Call.\");\n        _;\n    }\n\n   constructor() public {  \n\t\n    EC_Head = msg.sender;\n    ec_officials[msg.sender] = true;\n    kyc_verifiers[msg.sender] = true;\n    verified_voter_count = 0;\n\n    }  \n\n    function addEcOfficial (address official) public {\n        ec_officials[official] = true;\n    }\n    function removeEcOfficial(address official) public {\n        ec_officials[official] = false;\n        delete ec_officials[official];\n    }\n    function addKycVerifier (address verifier) public {\n        kyc_verifiers[verifier] = true;\n    }\n    function removeKycVerifier(address verifier) public {\n        kyc_verifiers[verifier] = false;\n        delete kyc_verifiers[verifier];\n    }\n    \n    function kycVerify(bytes32  uuid_hash, string memory name, uint256 dob, uint256 current_timestamp) public {\n        Voter memory voter = Voter(name, dob, \"\", msg.sender, current_timestamp);\n        voters[uuid_hash] = voter;\n        verified_voter_count++;\n    }\n\n    function generateVoterId(bytes32 uuid_hash, string memory voterId, uint256 current_timestamp) public {\n        \n        Voter memory voter = voters[uuid_hash];\n        uint256 dob = voter.dob;\n        uint256 age = (current_timestamp - dob)/(1000*60*60*24*365);\n        \n        require(age >= 18, \"Not Allowed to Vote. Only eligible to vote if age is above 18 years.\"); \n        voter.voterId = voterId;\n        voters[uuid_hash] = voter;\n\n    }\n}\n\nlibrary SafeMath { \n    function sub(uint256 a, uint256 b) internal pure returns (uint256) {\n      assert(b <= a);\n      return a - b;\n    }\n    \n    function add(uint256 a, uint256 b) internal pure returns (uint256) {\n      uint256 c = a + b;\n      assert(c >= a);\n      return c;\n    }\n\n}\n",
  "sourcePath": "/Users/smitrajput/Projects/CosmoVoting/Dapp/contracts/VoterData.sol",
  "compiler": {
    "name": "solc",
    "version": "0.5.8+commit.23d335f2.Emscripten.clang"
  },
  "schemaVersion": "3.0.16",
  "updatedAt": "2019-10-08T03:59:12.087Z",
  "devdoc": {
    "methods": {}
  },
  "userdoc": {
    "methods": {}
  }
}